{
  "contractName": "GroupFund",
  "abi": [
    {
      "inputs": [],
      "stateMutability": "nonpayable",
      "type": "constructor"
    },
    {
      "inputs": [],
      "name": "admin",
      "outputs": [
        {
          "internalType": "address",
          "name": "",
          "type": "address"
        }
      ],
      "stateMutability": "view",
      "type": "function",
      "constant": true
    },
    {
      "inputs": [],
      "name": "id_round",
      "outputs": [
        {
          "internalType": "uint256",
          "name": "",
          "type": "uint256"
        }
      ],
      "stateMutability": "view",
      "type": "function",
      "constant": true
    },
    {
      "inputs": [
        {
          "internalType": "address",
          "name": "",
          "type": "address"
        }
      ],
      "name": "participant_has_voted",
      "outputs": [
        {
          "internalType": "bool",
          "name": "",
          "type": "bool"
        }
      ],
      "stateMutability": "view",
      "type": "function",
      "constant": true
    },
    {
      "inputs": [
        {
          "internalType": "address",
          "name": "",
          "type": "address"
        }
      ],
      "name": "participant_votes",
      "outputs": [
        {
          "internalType": "uint256",
          "name": "",
          "type": "uint256"
        }
      ],
      "stateMutability": "view",
      "type": "function",
      "constant": true
    },
    {
      "inputs": [
        {
          "internalType": "uint256",
          "name": "",
          "type": "uint256"
        }
      ],
      "name": "participant_votes_array",
      "outputs": [
        {
          "internalType": "address payable",
          "name": "",
          "type": "address"
        }
      ],
      "stateMutability": "view",
      "type": "function",
      "constant": true
    },
    {
      "inputs": [
        {
          "internalType": "address",
          "name": "",
          "type": "address"
        }
      ],
      "name": "participants",
      "outputs": [
        {
          "internalType": "uint256",
          "name": "",
          "type": "uint256"
        }
      ],
      "stateMutability": "view",
      "type": "function",
      "constant": true
    },
    {
      "inputs": [
        {
          "internalType": "uint256",
          "name": "",
          "type": "uint256"
        }
      ],
      "name": "participants_array",
      "outputs": [
        {
          "internalType": "address payable",
          "name": "",
          "type": "address"
        }
      ],
      "stateMutability": "view",
      "type": "function",
      "constant": true
    },
    {
      "inputs": [
        {
          "internalType": "uint256",
          "name": "",
          "type": "uint256"
        }
      ],
      "name": "recordOfWinners",
      "outputs": [
        {
          "internalType": "address",
          "name": "",
          "type": "address"
        }
      ],
      "stateMutability": "view",
      "type": "function",
      "constant": true
    },
    {
      "inputs": [],
      "name": "required_amount",
      "outputs": [
        {
          "internalType": "uint256",
          "name": "",
          "type": "uint256"
        }
      ],
      "stateMutability": "view",
      "type": "function",
      "constant": true
    },
    {
      "inputs": [],
      "name": "total_amount_raised",
      "outputs": [
        {
          "internalType": "uint256",
          "name": "",
          "type": "uint256"
        }
      ],
      "stateMutability": "view",
      "type": "function",
      "constant": true
    },
    {
      "inputs": [],
      "name": "total_number_votes",
      "outputs": [
        {
          "internalType": "uint256",
          "name": "",
          "type": "uint256"
        }
      ],
      "stateMutability": "view",
      "type": "function",
      "constant": true
    },
    {
      "inputs": [],
      "name": "contribute",
      "outputs": [],
      "stateMutability": "payable",
      "type": "function",
      "payable": true
    },
    {
      "inputs": [],
      "name": "getParticipants",
      "outputs": [
        {
          "internalType": "address payable[]",
          "name": "",
          "type": "address[]"
        }
      ],
      "stateMutability": "view",
      "type": "function",
      "constant": true
    },
    {
      "inputs": [],
      "name": "obtainVoteResults",
      "outputs": [
        {
          "internalType": "address payable[]",
          "name": "",
          "type": "address[]"
        }
      ],
      "stateMutability": "view",
      "type": "function",
      "constant": true
    },
    {
      "inputs": [
        {
          "internalType": "address",
          "name": "winnerUser",
          "type": "address"
        }
      ],
      "name": "voteTaker",
      "outputs": [],
      "stateMutability": "payable",
      "type": "function",
      "payable": true
    }
  ],
  "bytecode": "0x608060405234801561001057600080fd5b50336000806101000a81548173ffffffffffffffffffffffffffffffffffffffff021916908373ffffffffffffffffffffffffffffffffffffffff1602179055506512309ce540006009819055506001600a819055506115be806100756000396000f3fe6080604052600436106100e85760003560e01c80639c0cde161161008a578063c14f7cee11610059578063c14f7cee14610311578063d7bb99ba1461033c578063ec52073414610346578063f851a44014610383576100e8565b80639c0cde1614610262578063a129d4eb1461028d578063a7779522146102ca578063ba6fec77146102f5576100e8565b80636a09e1b4116100c65780636a09e1b4146101925780637169cddc146101cf5780637bd283e4146101fa57806396a248cb14610237576100e8565b806309e69ede146100ed5780632f9865511461012a5780635aa68ac014610167575b600080fd5b3480156100f957600080fd5b50610114600480360381019061010f9190610f6e565b6103ae565b6040516101219190610fb4565b60405180910390f35b34801561013657600080fd5b50610151600480360381019061014c9190610ffb565b6103c6565b60405161015e9190611049565b60405180910390f35b34801561017357600080fd5b5061017c610405565b6040516101899190611122565b60405180910390f35b34801561019e57600080fd5b506101b960048036038101906101b49190610ffb565b610493565b6040516101c69190611049565b60405180910390f35b3480156101db57600080fd5b506101e46104d2565b6040516101f19190610fb4565b60405180910390f35b34801561020657600080fd5b50610221600480360381019061021c9190610f6e565b6104d8565b60405161022e9190610fb4565b60405180910390f35b34801561024357600080fd5b5061024c6104f0565b6040516102599190611122565b60405180910390f35b34801561026e57600080fd5b5061027761057e565b6040516102849190610fb4565b60405180910390f35b34801561029957600080fd5b506102b460048036038101906102af9190610f6e565b610584565b6040516102c1919061115f565b60405180910390f35b3480156102d657600080fd5b506102df6105a4565b6040516102ec9190610fb4565b60405180910390f35b61030f600480360381019061030a9190610f6e565b6105aa565b005b34801561031d57600080fd5b50610326610c9a565b6040516103339190610fb4565b60405180910390f35b610344610ca0565b005b34801561035257600080fd5b5061036d60048036038101906103689190610ffb565b610e01565b60405161037a9190611189565b60405180910390f35b34801561038f57600080fd5b50610398610e40565b6040516103a59190611189565b60405180910390f35b60026020528060005260406000206000915090505481565b600381815481106103d657600080fd5b906000526020600020016000915054906101000a900473ffffffffffffffffffffffffffffffffffffffff1681565b6060600180548060200260200160405190810160405280929190818152602001828054801561048957602002820191906000526020600020905b8160009054906101000a900473ffffffffffffffffffffffffffffffffffffffff1673ffffffffffffffffffffffffffffffffffffffff168152602001906001019080831161043f575b5050505050905090565b600181815481106104a357600080fd5b906000526020600020016000915054906101000a900473ffffffffffffffffffffffffffffffffffffffff1681565b60095481565b60046020528060005260406000206000915090505481565b6060600380548060200260200160405190810160405280929190818152602001828054801561057457602002820191906000526020600020905b8160009054906101000a900473ffffffffffffffffffffffffffffffffffffffff1673ffffffffffffffffffffffffffffffffffffffff168152602001906001019080831161052a575b5050505050905090565b60085481565b60056020528060005260406000206000915054906101000a900460ff1681565b600a5481565b6000600260003373ffffffffffffffffffffffffffffffffffffffff1673ffffffffffffffffffffffffffffffffffffffff168152602001908152602001600020540361062c576040517f08c379a000000000000000000000000000000000000000000000000000000000815260040161062390611227565b60405180910390fd5b6000600260008373ffffffffffffffffffffffffffffffffffffffff1673ffffffffffffffffffffffffffffffffffffffff16815260200190815260200160002054036106ae576040517f08c379a00000000000000000000000000000000000000000000000000000000081526004016106a5906112b9565b60405180910390fd5b60001515600560003373ffffffffffffffffffffffffffffffffffffffff1673ffffffffffffffffffffffffffffffffffffffff16815260200190815260200160002060009054906101000a900460ff16151514610741576040517f08c379a00000000000000000000000000000000000000000000000000000000081526004016107389061134b565b60405180910390fd5b6000600460008373ffffffffffffffffffffffffffffffffffffffff1673ffffffffffffffffffffffffffffffffffffffff16815260200190815260200160002054036107ec576003819080600181540180825580915050600190039060005260206000200160009091909190916101000a81548173ffffffffffffffffffffffffffffffffffffffff021916908373ffffffffffffffffffffffffffffffffffffffff1602179055505b6001600460008373ffffffffffffffffffffffffffffffffffffffff1673ffffffffffffffffffffffffffffffffffffffff168152602001908152602001600020600082825461083c919061139a565b92505081905550600160076000828254610856919061139a565b925050819055506001600560003373ffffffffffffffffffffffffffffffffffffffff1673ffffffffffffffffffffffffffffffffffffffff16815260200190815260200160002060006101000a81548160ff02191690831515021790555060026001805490506108c7919061141f565b600460008373ffffffffffffffffffffffffffffffffffffffff1673ffffffffffffffffffffffffffffffffffffffff1681526020019081526020016000205411801561091957506002600180549050115b15610c97578073ffffffffffffffffffffffffffffffffffffffff166108fc6008549081150290604051600060405180830381858888f19350505050158015610966573d6000803e3d6000fd5b506006819080600181540180825580915050600190039060005260206000200160009091909190916101000a81548173ffffffffffffffffffffffffffffffffffffffff021916908373ffffffffffffffffffffffffffffffffffffffff16021790555060006008819055506000600781905550600a60008154809291906109ed90611450565b919050555060005b600180549050811015610b2e5760006002600060018481548110610a1c57610a1b611498565b5b9060005260206000200160009054906101000a900473ffffffffffffffffffffffffffffffffffffffff1673ffffffffffffffffffffffffffffffffffffffff1673ffffffffffffffffffffffffffffffffffffffff1681526020019081526020016000208190555060006005600060018481548110610a9f57610a9e611498565b5b9060005260206000200160009054906101000a900473ffffffffffffffffffffffffffffffffffffffff1673ffffffffffffffffffffffffffffffffffffffff1673ffffffffffffffffffffffffffffffffffffffff16815260200190815260200160002060006101000a81548160ff0219169083151502179055508080610b2690611450565b9150506109f5565b5060005b600380549050811015610bd55760006004600060038481548110610b5957610b58611498565b5b9060005260206000200160009054906101000a900473ffffffffffffffffffffffffffffffffffffffff1673ffffffffffffffffffffffffffffffffffffffff1673ffffffffffffffffffffffffffffffffffffffff168152602001908152602001600020819055508080610bcd90611450565b915050610b32565b50600067ffffffffffffffff811115610bf157610bf06114c7565b5b604051908082528060200260200182016040528015610c1f5781602001602082028036833780820191505090505b5060019080519060200190610c35929190610e64565b50600067ffffffffffffffff811115610c5157610c506114c7565b5b604051908082528060200260200182016040528015610c7f5781602001602082028036833780820191505090505b5060039080519060200190610c95929190610e64565b505b50565b60075481565b600954341015610ce5576040517f08c379a0000000000000000000000000000000000000000000000000000000008152600401610cdc90611568565b60405180910390fd5b6000600260003373ffffffffffffffffffffffffffffffffffffffff1673ffffffffffffffffffffffffffffffffffffffff1681526020019081526020016000205403610d90576001339080600181540180825580915050600190039060005260206000200160009091909190916101000a81548173ffffffffffffffffffffffffffffffffffffffff021916908373ffffffffffffffffffffffffffffffffffffffff1602179055505b34600260003373ffffffffffffffffffffffffffffffffffffffff1673ffffffffffffffffffffffffffffffffffffffff1681526020019081526020016000206000828254610ddf919061139a565b925050819055503460086000828254610df8919061139a565b92505081905550565b60068181548110610e1157600080fd5b906000526020600020016000915054906101000a900473ffffffffffffffffffffffffffffffffffffffff1681565b60008054906101000a900473ffffffffffffffffffffffffffffffffffffffff1681565b828054828255906000526020600020908101928215610edd579160200282015b82811115610edc5782518260006101000a81548173ffffffffffffffffffffffffffffffffffffffff021916908373ffffffffffffffffffffffffffffffffffffffff16021790555091602001919060010190610e84565b5b509050610eea9190610eee565b5090565b5b80821115610f07576000816000905550600101610eef565b5090565b600080fd5b600073ffffffffffffffffffffffffffffffffffffffff82169050919050565b6000610f3b82610f10565b9050919050565b610f4b81610f30565b8114610f5657600080fd5b50565b600081359050610f6881610f42565b92915050565b600060208284031215610f8457610f83610f0b565b5b6000610f9284828501610f59565b91505092915050565b6000819050919050565b610fae81610f9b565b82525050565b6000602082019050610fc96000830184610fa5565b92915050565b610fd881610f9b565b8114610fe357600080fd5b50565b600081359050610ff581610fcf565b92915050565b60006020828403121561101157611010610f0b565b5b600061101f84828501610fe6565b91505092915050565b600061103382610f10565b9050919050565b61104381611028565b82525050565b600060208201905061105e600083018461103a565b92915050565b600081519050919050565b600082825260208201905092915050565b6000819050602082019050919050565b61109981611028565b82525050565b60006110ab8383611090565b60208301905092915050565b6000602082019050919050565b60006110cf82611064565b6110d9818561106f565b93506110e483611080565b8060005b838110156111155781516110fc888261109f565b9750611107836110b7565b9250506001810190506110e8565b5085935050505092915050565b6000602082019050818103600083015261113c81846110c4565b905092915050565b60008115159050919050565b61115981611144565b82525050565b60006020820190506111746000830184611150565b92915050565b61118381610f30565b82525050565b600060208201905061119e600083018461117a565b92915050565b600082825260208201905092915050565b7f54686520757365722077686f277320766f74696e67206469646e277420636f6e60008201527f7472696275746520746f207468652067726f75702066756e642e000000000000602082015250565b6000611211603a836111a4565b915061121c826111b5565b604082019050919050565b6000602082019050818103600083015261124081611204565b9050919050565b7f54686520757365722077686f2773206265696e6720766f746564206469646e2760008201527f7420636f6e7472696275746520746f207468652067726f75702066756e642e00602082015250565b60006112a3603f836111a4565b91506112ae82611247565b604082019050919050565b600060208201905081810360008301526112d281611296565b9050919050565b7f54686973207061727469636970616e742068617320616c726561647920766f7460008201527f65642e0000000000000000000000000000000000000000000000000000000000602082015250565b60006113356023836111a4565b9150611340826112d9565b604082019050919050565b6000602082019050818103600083015261136481611328565b9050919050565b7f4e487b7100000000000000000000000000000000000000000000000000000000600052601160045260246000fd5b60006113a582610f9b565b91506113b083610f9b565b9250827fffffffffffffffffffffffffffffffffffffffffffffffffffffffffffffffff038211156113e5576113e461136b565b5b828201905092915050565b7f4e487b7100000000000000000000000000000000000000000000000000000000600052601260045260246000fd5b600061142a82610f9b565b915061143583610f9b565b925082611445576114446113f0565b5b828204905092915050565b600061145b82610f9b565b91507fffffffffffffffffffffffffffffffffffffffffffffffffffffffffffffffff820361148d5761148c61136b565b5b600182019050919050565b7f4e487b7100000000000000000000000000000000000000000000000000000000600052603260045260246000fd5b7f4e487b7100000000000000000000000000000000000000000000000000000000600052604160045260246000fd5b7f416d6f756e742070616964206973206c657373207468616e20746865206d696e60008201527f696d756d20616d6f756e74000000000000000000000000000000000000000000602082015250565b6000611552602b836111a4565b915061155d826114f6565b604082019050919050565b6000602082019050818103600083015261158181611545565b905091905056fea264697066735822122076834d0168aadd50f4a620bb5ef03adfd3398ae4cbb83bcd2cf09fa9392bfd1164736f6c634300080f0033",
  "immutableReferences": {},
  "source": "// SPDX-License-Identifier: GPL-3.0\npragma solidity >=0.7.0 <0.9.0;\n\ncontract GroupFund {\n    address public admin;\n    //all contributors\n    address payable[] public participants_array;\n    //participants: to check how much each contributor contributed\n    mapping(address => uint256) public participants;\n    //all addresses that were voted\n    address payable[] public participant_votes_array;\n    //participant_votes: to check how much votes each player that was voted has\n    mapping(address => uint256) public participant_votes;\n    //check if an address has voted already\n    mapping(address => bool) public participant_has_voted;\n    //array of all addresses that won\n    address[] public recordOfWinners;\n\n    uint256 public total_number_votes;\n    uint256 public total_amount_raised;\n    uint256 public required_amount;\n    uint256 public id_round;\n\n    constructor() {\n        admin = msg.sender;\n        required_amount = 20000000000000;\n        id_round = 1;\n    }\n\n    //adding voter to participants array and populating map for each individual's contribution\n    function contribute() public payable {\n        require(\n            msg.value >= required_amount,\n            \"Amount paid is less than the minimum amount\"\n        );\n        if (participants[msg.sender] == 0) {\n            participants_array.push(payable(msg.sender));\n        }\n        participants[msg.sender] += msg.value;\n        total_amount_raised += msg.value;\n    }\n\n    function getParticipants() public view returns (address payable[] memory) {\n        return participants_array;\n    }\n\n    function obtainVoteResults()\n        public\n        view\n        returns (address payable[] memory)\n    {\n        return participant_votes_array;\n    }\n\n    //voting function, also checks if the latest vote finally generates a winner and restarts all data structures\n    function voteTaker(address winnerUser) public payable {\n        require(\n            participants[msg.sender] != 0,\n            \"The user who's voting didn't contribute to the group fund.\"\n        );\n\n        require(\n            participants[winnerUser] != 0,\n            \"The user who's being voted didn't contribute to the group fund.\"\n        );\n        require(\n            participant_has_voted[msg.sender] == false,\n            \"This participant has already voted.\"\n        );\n        if (participant_votes[winnerUser] == 0) {\n            participant_votes_array.push(payable(winnerUser));\n        }\n        participant_votes[winnerUser] += 1;\n        total_number_votes += 1;\n        participant_has_voted[msg.sender] = true;\n        // need for votes to be more than half of participants, and more than two participants required\n        if (\n            participant_votes[winnerUser] > participants_array.length / 2 &&\n            participants_array.length > 2\n        ) {\n            payable(winnerUser).transfer(total_amount_raised);\n            recordOfWinners.push(winnerUser);\n            total_amount_raised = 0;\n            total_number_votes = 0;\n            id_round++;\n            // reset the maps and arrays\n            for (uint256 i = 0; i < participants_array.length; i++) {\n                participants[participants_array[i]] = 0;\n                participant_has_voted[participants_array[i]] = false;\n            }\n            for (uint256 j = 0; j < participant_votes_array.length; j++) {\n                participant_votes[participant_votes_array[j]] = 0;\n            }\n            participants_array = new address payable[](0);\n            participant_votes_array = new address payable[](0);\n        }\n    }\n}\n",
  "sourcePath": "/Users/armandoborda/development/ethereum/Funds/contracts/groupFunds.sol",
  "compiler": {
    "name": "solc",
    "version": "0.8.15+commit.e14f2714.Emscripten.clang"
  },
  "schemaVersion": "3.4.4",
  "updatedAt": "2022-09-07T00:09:39.514Z",
  "networkType": "ethereum",
  "devdoc": {
    "kind": "dev",
    "methods": {},
    "version": 1
  },
  "userdoc": {
    "kind": "user",
    "methods": {},
    "version": 1
  }
}