{
  "contractName": "theLottery",
  "abi": [
    {
      "inputs": [],
      "stateMutability": "nonpayable",
      "type": "constructor"
    },
    {
      "inputs": [],
      "name": "admin",
      "outputs": [
        {
          "internalType": "address",
          "name": "",
          "type": "address"
        }
      ],
      "stateMutability": "view",
      "type": "function"
    },
    {
      "inputs": [],
      "name": "game_number",
      "outputs": [
        {
          "internalType": "uint256",
          "name": "",
          "type": "uint256"
        }
      ],
      "stateMutability": "view",
      "type": "function"
    },
    {
      "inputs": [],
      "name": "lotteryId",
      "outputs": [
        {
          "internalType": "uint256",
          "name": "",
          "type": "uint256"
        }
      ],
      "stateMutability": "view",
      "type": "function"
    },
    {
      "inputs": [
        {
          "internalType": "uint256",
          "name": "",
          "type": "uint256"
        }
      ],
      "name": "participants",
      "outputs": [
        {
          "internalType": "address payable",
          "name": "",
          "type": "address"
        }
      ],
      "stateMutability": "view",
      "type": "function"
    },
    {
      "inputs": [
        {
          "internalType": "uint256",
          "name": "",
          "type": "uint256"
        },
        {
          "internalType": "address",
          "name": "",
          "type": "address"
        }
      ],
      "name": "participants_contribution",
      "outputs": [
        {
          "internalType": "uint256",
          "name": "",
          "type": "uint256"
        }
      ],
      "stateMutability": "view",
      "type": "function"
    },
    {
      "inputs": [],
      "name": "randomResult",
      "outputs": [
        {
          "internalType": "uint256",
          "name": "",
          "type": "uint256"
        }
      ],
      "stateMutability": "view",
      "type": "function"
    },
    {
      "inputs": [
        {
          "internalType": "bytes32",
          "name": "requestId",
          "type": "bytes32"
        },
        {
          "internalType": "uint256",
          "name": "randomness",
          "type": "uint256"
        }
      ],
      "name": "rawFulfillRandomness",
      "outputs": [],
      "stateMutability": "nonpayable",
      "type": "function"
    },
    {
      "inputs": [
        {
          "internalType": "uint256",
          "name": "",
          "type": "uint256"
        }
      ],
      "name": "recordOfWinners",
      "outputs": [
        {
          "internalType": "uint256",
          "name": "amount_paid",
          "type": "uint256"
        },
        {
          "internalType": "address payable",
          "name": "participant_address",
          "type": "address"
        }
      ],
      "stateMutability": "view",
      "type": "function"
    },
    {
      "inputs": [],
      "name": "getRandomNumber",
      "outputs": [
        {
          "internalType": "bytes32",
          "name": "requestId",
          "type": "bytes32"
        }
      ],
      "stateMutability": "nonpayable",
      "type": "function"
    },
    {
      "inputs": [
        {
          "internalType": "uint256",
          "name": "index_lotteries",
          "type": "uint256"
        }
      ],
      "name": "getWinnerByLottery",
      "outputs": [
        {
          "components": [
            {
              "internalType": "uint256",
              "name": "amount_paid",
              "type": "uint256"
            },
            {
              "internalType": "address payable",
              "name": "participant_address",
              "type": "address"
            }
          ],
          "internalType": "struct theLottery.participant",
          "name": "",
          "type": "tuple"
        }
      ],
      "stateMutability": "view",
      "type": "function"
    },
    {
      "inputs": [],
      "name": "getLotteryBalance",
      "outputs": [
        {
          "internalType": "uint256",
          "name": "",
          "type": "uint256"
        }
      ],
      "stateMutability": "view",
      "type": "function"
    },
    {
      "inputs": [],
      "name": "getParticipants",
      "outputs": [
        {
          "internalType": "address payable[]",
          "name": "",
          "type": "address[]"
        }
      ],
      "stateMutability": "view",
      "type": "function"
    },
    {
      "inputs": [],
      "name": "enter",
      "outputs": [],
      "stateMutability": "payable",
      "type": "function"
    },
    {
      "inputs": [],
      "name": "pickWinner",
      "outputs": [],
      "stateMutability": "nonpayable",
      "type": "function"
    },
    {
      "inputs": [],
      "name": "payWinner",
      "outputs": [],
      "stateMutability": "nonpayable",
      "type": "function"
    }
  ],
  "bytecode": "0x60c060405234801561001057600080fd5b5073b3dccb4cf7a26f6cf6b120cf5a73875b7bbc655b7301be23585060835e02b77ef475b0cc51aa1e07098173ffffffffffffffffffffffffffffffffffffffff1660a08173ffffffffffffffffffffffffffffffffffffffff16815250508073ffffffffffffffffffffffffffffffffffffffff1660808173ffffffffffffffffffffffffffffffffffffffff168152505050507f2ed0feb3e7fd2022120aa84fab1945545a9f2ffc9076fd6156fa96eaff4c131160001b60078190555067016345785d8a000060068190555033600360006101000a81548173ffffffffffffffffffffffffffffffffffffffff021916908373ffffffffffffffffffffffffffffffffffffffff16021790555060018081905550600060098190555060805160a051611717610161600039600081816105510152610b930152600081816108200152610b5701526117176000f3fe6080604052600436106100e85760003560e01c8063be71248a1161008a578063e97dcb6211610059578063e97dcb62146102d2578063ec520734146102dc578063f7d159d81461031a578063f851a44014610345576100e8565b8063be71248a14610228578063dbdff2c11461023f578063e580f47b1461026a578063e94b2cb614610295576100e8565b80635aa68ac0116100c65780635aa68ac0146101925780635d495aea146101bd57806360654e47146101d457806394985ddd146101ff576100e8565b8063281d098d146100ed57806335c1d3491461012a57806342619f6614610167575b600080fd5b3480156100f957600080fd5b50610114600480360381019061010f9190610e24565b610370565b6040516101219190610ed0565b60405180910390f35b34801561013657600080fd5b50610151600480360381019061014c9190610e24565b6103fd565b60405161015e9190610efa565b60405180910390f35b34801561017357600080fd5b5061017c61043c565b6040516101899190610f24565b60405180910390f35b34801561019e57600080fd5b506101a7610442565b6040516101b49190610fee565b60405180910390f35b3480156101c957600080fd5b506101d26104d0565b005b3480156101e057600080fd5b506101e9610547565b6040516101f69190610f24565b60405180910390f35b34801561020b57600080fd5b5061022660048036038101906102219190611046565b61054f565b005b34801561023457600080fd5b5061023d6105eb565b005b34801561024b57600080fd5b50610254610819565b6040516102619190611095565b60405180910390f35b34801561027657600080fd5b5061027f61090c565b60405161028c9190610f24565b60405180910390f35b3480156102a157600080fd5b506102bc60048036038101906102b791906110ee565b610912565b6040516102c99190610f24565b60405180910390f35b6102da610937565b005b3480156102e857600080fd5b5061030360048036038101906102fe9190610e24565b610ad0565b60405161031192919061112e565b60405180910390f35b34801561032657600080fd5b5061032f610b14565b60405161033c9190610f24565b60405180910390f35b34801561035157600080fd5b5061035a610b1a565b6040516103679190611166565b60405180910390f35b610378610d12565b60026000838152602001908152602001600020604051806040016040529081600082015481526020016001820160009054906101000a900473ffffffffffffffffffffffffffffffffffffffff1673ffffffffffffffffffffffffffffffffffffffff1673ffffffffffffffffffffffffffffffffffffffff16815250509050919050565b6005818154811061040d57600080fd5b906000526020600020016000915054906101000a900473ffffffffffffffffffffffffffffffffffffffff1681565b60085481565b606060058054806020026020016040519081016040528092919081815260200182805480156104c657602002820191906000526020600020905b8160009054906101000a900473ffffffffffffffffffffffffffffffffffffffff1673ffffffffffffffffffffffffffffffffffffffff168152602001906001019080831161047c575b5050505050905090565b600360009054906101000a900473ffffffffffffffffffffffffffffffffffffffff1673ffffffffffffffffffffffffffffffffffffffff163373ffffffffffffffffffffffffffffffffffffffff161461052a57600080fd5b60016005805490501161053c57600080fd5b610544610819565b50565b600047905090565b7f000000000000000000000000000000000000000000000000000000000000000073ffffffffffffffffffffffffffffffffffffffff163373ffffffffffffffffffffffffffffffffffffffff16146105dd576040517f08c379a00000000000000000000000000000000000000000000000000000000081526004016105d4906111de565b60405180910390fd5b6105e78282610b40565b5050565b600060085411610630576040517f08c379a000000000000000000000000000000000000000000000000000000000815260040161062790611270565b60405180910390fd5b600060058054905060085461064591906112bf565b9050476002600060015481526020019081526020016000206000018190555060058181548110610678576106776112f0565b5b9060005260206000200160009054906101000a900473ffffffffffffffffffffffffffffffffffffffff1660026000600154815260200190815260200160002060010160006101000a81548173ffffffffffffffffffffffffffffffffffffffff021916908373ffffffffffffffffffffffffffffffffffffffff1602179055506005818154811061070d5761070c6112f0565b5b9060005260206000200160009054906101000a900473ffffffffffffffffffffffffffffffffffffffff1673ffffffffffffffffffffffffffffffffffffffff166108fc479081150290604051600060405180830381858888f1935050505015801561077d573d6000803e3d6000fd5b50600160008154809291906107919061134e565b9190505550600067ffffffffffffffff8111156107b1576107b0611396565b5b6040519080825280602002602001820160405280156107df5781602001602082028036833780820191505090505b50600590805190602001906107f5929190610d42565b50600960008154809291906108099061134e565b9190505550600060088190555050565b60006006547f000000000000000000000000000000000000000000000000000000000000000073ffffffffffffffffffffffffffffffffffffffff166370a08231306040518263ffffffff1660e01b81526004016108779190611166565b602060405180830381865afa158015610894573d6000803e3d6000fd5b505050506040513d601f19601f820116820180604052508101906108b891906113da565b10156108f9576040517f08c379a00000000000000000000000000000000000000000000000000000000081526004016108f090611453565b60405180910390fd5b610907600754600654610b53565b905090565b60015481565b6004602052816000526040600020602052806000526040600020600091509150505481565b66470de4df82000034101561094b57600080fd5b600060046000600954815260200190815260200160002060003373ffffffffffffffffffffffffffffffffffffffff1673ffffffffffffffffffffffffffffffffffffffff1681526020019081526020016000205403610a64576005339080600181540180825580915050600190039060005260206000200160009091909190916101000a81548173ffffffffffffffffffffffffffffffffffffffff021916908373ffffffffffffffffffffffffffffffffffffffff1602179055503460046000600954815260200190815260200160002060003373ffffffffffffffffffffffffffffffffffffffff1673ffffffffffffffffffffffffffffffffffffffff16815260200190815260200160002081905550610ace565b3460046000600954815260200190815260200160002060003373ffffffffffffffffffffffffffffffffffffffff1673ffffffffffffffffffffffffffffffffffffffff1681526020019081526020016000206000828254610ac69190611473565b925050819055505b565b60026020528060005260406000206000915090508060000154908060010160009054906101000a900473ffffffffffffffffffffffffffffffffffffffff16905082565b60095481565b600360009054906101000a900473ffffffffffffffffffffffffffffffffffffffff1681565b80600881905550610b4f6105eb565b5050565b60007f000000000000000000000000000000000000000000000000000000000000000073ffffffffffffffffffffffffffffffffffffffff16634000aea07f000000000000000000000000000000000000000000000000000000000000000084866000604051602001610bc79291906114c9565b6040516020818303038152906040526040518463ffffffff1660e01b8152600401610bf49392919061158b565b6020604051808303816000875af1158015610c13573d6000803e3d6000fd5b505050506040513d601f19601f82011682018060405250810190610c379190611601565b506000610c598460003060008089815260200190815260200160002054610ca3565b9050600160008086815260200190815260200160002054610c7a9190611473565b60008086815260200190815260200160002081905550610c9a8482610cdf565b91505092915050565b600084848484604051602001610cbc949392919061162e565b6040516020818303038152906040528051906020012060001c9050949350505050565b60008282604051602001610cf49291906116b5565b60405160208183030381529060405280519060200120905092915050565b604051806040016040528060008152602001600073ffffffffffffffffffffffffffffffffffffffff1681525090565b828054828255906000526020600020908101928215610dbb579160200282015b82811115610dba5782518260006101000a81548173ffffffffffffffffffffffffffffffffffffffff021916908373ffffffffffffffffffffffffffffffffffffffff16021790555091602001919060010190610d62565b5b509050610dc89190610dcc565b5090565b5b80821115610de5576000816000905550600101610dcd565b5090565b600080fd5b6000819050919050565b610e0181610dee565b8114610e0c57600080fd5b50565b600081359050610e1e81610df8565b92915050565b600060208284031215610e3a57610e39610de9565b5b6000610e4884828501610e0f565b91505092915050565b610e5a81610dee565b82525050565b600073ffffffffffffffffffffffffffffffffffffffff82169050919050565b6000610e8b82610e60565b9050919050565b610e9b81610e80565b82525050565b604082016000820151610eb76000850182610e51565b506020820151610eca6020850182610e92565b50505050565b6000604082019050610ee56000830184610ea1565b92915050565b610ef481610e80565b82525050565b6000602082019050610f0f6000830184610eeb565b92915050565b610f1e81610dee565b82525050565b6000602082019050610f396000830184610f15565b92915050565b600081519050919050565b600082825260208201905092915050565b6000819050602082019050919050565b6000610f778383610e92565b60208301905092915050565b6000602082019050919050565b6000610f9b82610f3f565b610fa58185610f4a565b9350610fb083610f5b565b8060005b83811015610fe1578151610fc88882610f6b565b9750610fd383610f83565b925050600181019050610fb4565b5085935050505092915050565b600060208201905081810360008301526110088184610f90565b905092915050565b6000819050919050565b61102381611010565b811461102e57600080fd5b50565b6000813590506110408161101a565b92915050565b6000806040838503121561105d5761105c610de9565b5b600061106b85828601611031565b925050602061107c85828601610e0f565b9150509250929050565b61108f81611010565b82525050565b60006020820190506110aa6000830184611086565b92915050565b60006110bb82610e60565b9050919050565b6110cb816110b0565b81146110d657600080fd5b50565b6000813590506110e8816110c2565b92915050565b6000806040838503121561110557611104610de9565b5b600061111385828601610e0f565b9250506020611124858286016110d9565b9150509250929050565b60006040820190506111436000830185610f15565b6111506020830184610eeb565b9392505050565b611160816110b0565b82525050565b600060208201905061117b6000830184611157565b92915050565b600082825260208201905092915050565b7f4f6e6c7920565246436f6f7264696e61746f722063616e2066756c66696c6c00600082015250565b60006111c8601f83611181565b91506111d382611192565b602082019050919050565b600060208201905081810360008301526111f7816111bb565b9050919050565b7f4d7573742068617665206120736f75726365206f662072616e646f6d6e65737360008201527f206265666f72652063686f6f73696e672077696e6e6572000000000000000000602082015250565b600061125a603783611181565b9150611265826111fe565b604082019050919050565b600060208201905081810360008301526112898161124d565b9050919050565b7f4e487b7100000000000000000000000000000000000000000000000000000000600052601260045260246000fd5b60006112ca82610dee565b91506112d583610dee565b9250826112e5576112e4611290565b5b828206905092915050565b7f4e487b7100000000000000000000000000000000000000000000000000000000600052603260045260246000fd5b7f4e487b7100000000000000000000000000000000000000000000000000000000600052601160045260246000fd5b600061135982610dee565b91507fffffffffffffffffffffffffffffffffffffffffffffffffffffffffffffffff820361138b5761138a61131f565b5b600182019050919050565b7f4e487b7100000000000000000000000000000000000000000000000000000000600052604160045260246000fd5b6000815190506113d481610df8565b92915050565b6000602082840312156113f0576113ef610de9565b5b60006113fe848285016113c5565b91505092915050565b7f4e6f7420656e6f756768204c494e4b20696e20636f6e74726163740000000000600082015250565b600061143d601b83611181565b915061144882611407565b602082019050919050565b6000602082019050818103600083015261146c81611430565b9050919050565b600061147e82610dee565b915061148983610dee565b9250827fffffffffffffffffffffffffffffffffffffffffffffffffffffffffffffffff038211156114be576114bd61131f565b5b828201905092915050565b60006040820190506114de6000830185611086565b6114eb6020830184610f15565b9392505050565b600081519050919050565b600082825260208201905092915050565b60005b8381101561152c578082015181840152602081019050611511565b8381111561153b576000848401525b50505050565b6000601f19601f8301169050919050565b600061155d826114f2565b61156781856114fd565b935061157781856020860161150e565b61158081611541565b840191505092915050565b60006060820190506115a06000830186611157565b6115ad6020830185610f15565b81810360408301526115bf8184611552565b9050949350505050565b60008115159050919050565b6115de816115c9565b81146115e957600080fd5b50565b6000815190506115fb816115d5565b92915050565b60006020828403121561161757611616610de9565b5b6000611625848285016115ec565b91505092915050565b60006080820190506116436000830187611086565b6116506020830186610f15565b61165d6040830185611157565b61166a6060830184610f15565b95945050505050565b6000819050919050565b61168e61168982611010565b611673565b82525050565b6000819050919050565b6116af6116aa82610dee565b611694565b82525050565b60006116c1828561167d565b6020820191506116d1828461169e565b602082019150819050939250505056fea2646970667358221220e4b7c634e26c75a917a69279bd6d12716abf2a14de87b9c7083bf63c06de83d864736f6c634300080f0033",
  "immutableReferences": {
    "73": [
      {
        "length": 32,
        "start": 2080
      },
      {
        "length": 32,
        "start": 2903
      }
    ],
    "75": [
      {
        "length": 32,
        "start": 1361
      },
      {
        "length": 32,
        "start": 2963
      }
    ]
  },
  "source": "// SPDX-License-Identifier: MIT\n\npragma solidity >=0.7.0 <0.9.0;\n\nimport \"@chainlink/contracts/src/v0.8/VRFConsumerBase.sol\";\n\ncontract theLottery is VRFConsumerBase {\n    struct participant {\n        uint256 amount_paid;\n        address payable participant_address;\n    }\n\n    uint256 public lotteryId;\n    mapping(uint256 => participant) public recordOfWinners;\n    address public admin;\n    //map uses first index to 'reset' over once lottery finishes. High waste but for demonstration purposes.\n    mapping(uint256 => mapping(address => uint256))\n        public participants_contribution;\n    address payable[] public participants;\n    //participant[] public participants;\n\n    uint256 internal fee; // fee needed to retrieve random number from Chainlink\n    bytes32 internal keyHash; // identifies the specific Chainlink oracle\n    uint256 public randomResult;\n    uint256 public game_number;\n\n    //participant new_player;\n\n    constructor()\n        VRFConsumerBase(\n            0xb3dCcb4Cf7a26f6cf6B120Cf5A73875B7BBc655B, //the VRF coordinator\n            0x01BE23585060835E02B77ef475b0Cc51aA1e0709 //the address of LINK token\n        )\n    {\n        keyHash = 0x2ed0feb3e7fd2022120aa84fab1945545a9f2ffc9076fd6156fa96eaff4c1311;\n        fee = 0.1 * 10**18; // 0.1 LINK\n\n        admin = msg.sender;\n        lotteryId = 1;\n        game_number = 0;\n    }\n\n    function getRandomNumber() public returns (bytes32 requestId) {\n        require(\n            LINK.balanceOf(address(this)) >= fee,\n            \"Not enough LINK in contract\"\n        );\n        return requestRandomness(keyHash, fee);\n    }\n\n    function fulfillRandomness(bytes32 requestId, uint256 randomness)\n        internal\n        override\n    {\n        randomResult = randomness;\n        payWinner();\n    }\n\n    function getWinnerByLottery(uint256 index_lotteries)\n        public\n        view\n        returns (participant memory)\n    {\n        return recordOfWinners[index_lotteries];\n    }\n\n    function getLotteryBalance() public view returns (uint256) {\n        return address(this).balance;\n    }\n\n    function getParticipants() public view returns (address payable[] memory) {\n        return participants;\n    }\n\n    function enter() public payable {\n        require(msg.value >= 0.02 ether);\n        if (participants_contribution[game_number][msg.sender] == 0) {\n            participants.push(payable(msg.sender));\n            participants_contribution[game_number][msg.sender] = msg.value;\n        } else {\n            participants_contribution[game_number][msg.sender] += msg.value;\n        }\n\n        // avoid duplicate player in participants\n    }\n\n    /*\n    receive() external payable {\n        require(msg.value >= 0.02 ether);\n        //new_player.participant_address = payable(msg.sender);\n        //new_player.amount_paid = payable(msg.sender);\n        //participants.push(payable(msg.sender));\n        \n    }\n    */\n\n    function pickWinner() public onlyOwner {\n        require(participants.length > 1);\n        getRandomNumber();\n    }\n\n    function payWinner() public {\n        require(\n            randomResult > 0,\n            \"Must have a source of randomness before choosing winner\"\n        );\n        uint256 index = randomResult % participants.length;\n        recordOfWinners[lotteryId].amount_paid = address(this).balance;\n        recordOfWinners[lotteryId].participant_address = participants[index];\n        participants[index].transfer(address(this).balance);\n        lotteryId++;\n\n        // reset the state of the contract\n        participants = new address payable[](0);\n        game_number++;\n        randomResult = 0;\n    }\n\n    modifier onlyOwner() {\n        require(msg.sender == admin);\n        _;\n    }\n}\n",
  "sourcePath": "/Users/armandoborda/development/ethereum/Funds/contracts/creatorFunds.sol",
  "compiler": {
    "name": "solc",
    "version": "0.8.15+commit.e14f2714.Emscripten.clang"
  },
  "schemaVersion": "3.4.4",
  "updatedAt": "2022-09-07T00:09:39.500Z",
  "networkType": "ethereum",
  "devdoc": {
    "kind": "dev",
    "methods": {},
    "version": 1
  },
  "userdoc": {
    "kind": "user",
    "methods": {},
    "version": 1
  }
}